:020000040800F2
:10000000D00D00206D11000855090008570900089F
:100010005B0900085F090008630900080000000090
:100020000000000000000000000000006709000858
:1000300069090008000000006B0900086D0900084C
:100040008711000887110008871100088711000830
:100050008711000887110008871100088711000820
:100060008711000887110008871100088711000810
:100070008711000887110008871100088711000800
:1000800087110008871100088711000887110008F0
:1000900087110008871100088711000887110008E0
:1000A00087110008871100088711000887110008D0
:1000B00087110008BF0E000887110008871100088B
:1000C00087110008871100088711000887110008B0
:1000D00087110008E1100008871100088711000847
:1000E0008711000887110008871100088711000890
:1000F0008711000887110008871100088711000880
:10010000871100088711000887110008871100086F
:10011000871100088711000887110008871100085F
:10012000871100088711000887110008871100084F
:10013000871100088711000887110008871100083F
:10014000871100088711000887110008871100082F
:10015000871100088711000887110008871100081F
:10016000871100088711000887110008871100080F
:1001700087110008871100088711000887110008FF
:10018000871100088711000800F002F800F061F8FC
:100190000AA090E8000C82448344AAF10107DA45E2
:1001A00001D100F056F8AFF2090EBAE80F0013F0D3
:1001B000010F18BFFB1A43F0010318474C39000028
:1001C0006C3900000A444FF0000C10F8013B13F0AA
:1001D000070408BF10F8014B1D1108BF10F8015BA0
:1001E000641E05D010F8016B641E01F8016BF9D193
:1001F00013F0080F1EBF10F8014BAD1C0C1B09D1EA
:100200006D1E58BF01F801CBFAD505E014F8016B5B
:1002100001F8016B6D1EF9D59142D6D370470000ED
:100220000023002400250026103A28BF78C1FBD8FF
:10023000520728BF30C148BF0B607047642903F0E4
:100240003580002070471FB503F0C0FB1FBD10B5FF
:1002500010BD03F0F3F81146FFF7F5FF00F07DF94C
:1002600003F011F903B4FFF7F2FF03BC00F0D8FE6E
:1002700010B50020F2490880F2490860F249086090
:10028000F2A002F0D3FF6AE0F848008800F40040D2
:10029000002864D0F5480088C0F30D00F4490880B8
:1002A00008460188F3A002F0C1FF0020F34908804E
:1002B00030E0F348E3490968405C30384FF47A7124
:1002C00010FB01F1EE4ADF480068401C105C30383A
:1002D000642212FB0011EA4ADA480068801C105CB4
:1002E00030380A2212FB0011E54AD6480068C01CCB
:1002F000105C30380844E349E04A128821F81200C3
:10030000D0480068001DCF490860DC480088401CC8
:10031000DA490880D94800883228CADB0020D7494A
:1003200008800CE0D748D54A128830F81210D1A0C6
:1003300002F07CFFD1480088401CD0490880CF489B
:1003400000883228EEDB0020C84908800120BC4923
:100350000880BD4908600020C849088003E0B8480B
:100360000088002890D000BFC7A002F05FFF10BD3A
:1003700070B5CFA002F05AFF07E0002000F03EFC6D
:10038000064616B1D648467000E0F6E700BFD5A095
:1003900002F04CFF3EE00025B448008800F44040E5
:1003A000002837D0B1480088C0F30D0030B9CDA087
:1003B00002F03CFF0020AD4908802BE0002408E05B
:1003C000AF48005D303805EB850100EB4105601C4E
:1003D000C4B2A6480088C0F30D00A042F0DC294654
:1003E000C4A002F023FF0A20B5FBF0F52946C2A005
:1003F00002F01CFF6420B5FBF0F0B949887064205E
:10040000B5FBF0F100FB1150B549C87000209749C9
:10041000088000E0BFE700BFB8A002F007FF34E0AB
:1004200000250120B94908809048008800F4404028
:1004300058B38E480088C0F30D0078B9AFA002F021
:10044000F5FE002089490880002404E000208C4942
:100450000855601CC4B2322C17DAF7E7002408E014
:100460008748005D303805EB850100EB4105601CD5
:10047000C4B27E480088C0F30D00A042F0DC984969
:100480000D7100207949088000E0C9E700BF944859
:100490004078012804D002280FD0032827D119E082
:1004A000002407E09A4830F81400764921F8140037
:1004B000601CC4B2322CF5DB1AE0002407E095483A
:1004C00030F814006F4921F81400601CC4B2322CBB
:1004D000F5DB0DE0002407E08F4830F8140069498F
:1004E00021F81400601CC4B2322CF5DB00E000BF20
:1004F00000BF7B4880784FF47A7110FB01F0784997
:10050000C97801EB810100EB4100844991FBF0F0D7
:10051000834908607248C278817882A002F086FE22
:100520007F490988491E88B2012100F0ABFC0024F4
:100530000DE0544830F81400212190FBF1F0684997
:10054000097948434F4921F81400601CC4B2322C89
:10055000EFDB4DA002F06AFE70BD08B54FF4A0605D
:1005600000F024FEA82000F0D9FC4FF4E13000F0A8
:1005700065FD00F005FB00F023FB00F0E9FB3220F5
:10058000404B6A4A4FF060610090694800F088FB78
:100590000121032000F076FC0121002001F09CFFE6
:1005A0003221634800F0BCFB0020344908800EE093
:1005B00057483249098830F8110032492F4A1288C9
:1005C00021F812002D480088401C2C4908802B4837
:1005D00000883228ECDB00202849088055A002F072
:1005E00025FE4FF4FA7000F0FBFCFCE0002000F068
:1005F00005FB144908600846006803281DD1052042
:1006000008604EA002F012FEB0E0002000F0F6FA02
:100610000C49086008460068012802D002280DD164
:1006200005E0FFF7A5FE01204E4908609DE0FFF7B9
:100630001FFE01204B49086097E09CE094E0000019
:100640001A00002020000020A8824242C8CED2E238
:10065000B2A8D0CEC4A3CABDA3ACC7EBCAE4C8EB52
:100660003530B8F6CAFDD7D60D0A0000800100204B
:100670001800002025640D0A00000000160000206C
:1006800044060020F8010020B2A8D0CEB2FAC9FA80
:10069000B3C9B9A6A3ACC8E7D0E8B8FCB8C4B2A83F
:1006A000D0CEA3ACC7EBB0B4CFC25550BCFC0A004F
:1006B00020C7EBCAE4C8EBB1E0BAC53A6B302ED51F
:1006C000FDCFD2B2A820206B312EC8FDBDC7B2A885
:1006D000202055502EB7BDB2A8D0CE0D0A00000084
:1006E0003400002020C7EBCAE4C8EBC6B5C2CA0D6F
:1006F0000A00000025642C002564000020C7EBCA16
:10070000E4C8EBB7F9D6B50D0A0000001E000020C2
:10071000D63900083A3A00089E3A00089AC20C00FE
:100720003000002025642C2564000000087400407F
:10073000886002405265616479210A0020C7EBCAD3
:10074000E4C8EBB1E0BAC5A3BA6B302EB2FAC9FA6D
:10075000B2A8D0CE20206B312EC8CED2E2B2A8D023
:10076000CE0D0A002C00002000BF00BF6B480068BF
:1007700000283FF44AAF6A48006802280AD1694855
:100780000068401C674908600988491E88B2012139
:1007900000F078FB09E06449644800F0B0FE20B145
:1007A0006149624800F0C7FE00E0F4E700BF60481E
:1007B0000088401C5E4908800020584908605D4957
:1007C00008800A2000F00CFC5948008814280ADB35
:1007D0005948006808B9012000E000205649086027
:1007E00000205349088001E710B50446002C76D05C
:1007F000012000EB84005149085C012804D0022844
:100800001AD0032848D12FE00020494908800EE083
:100810004B484749098830F811004A49444A128830
:1008200021F8120042480088401C41490880404895
:1008300000883228ECDB30E000203D4908800EE0E3
:1008400041483B49098830F811003E49384A12882E
:1008500021F8120036480088401C35490880344889
:1008600000883228ECDB18E00020314908800EE0D7
:1008700036482F49098830F8111032482C4A12881E
:1008800020F812102A480088401C2949088028486E
:1008900000883228ECDB00E000BF00BF022000EB44
:1008A00084002649085C4FF47A7110FB01F00321A3
:1008B00001EB8401214A515C01EB810100EB410015
:1008C000234991FBF0F0174908600988491E88B256
:1008D000012100F0D7FA00201549088019E01CE03A
:1008E00018481349098830F81100212190FBF1F0D4
:1008F000042101EB8401114A515C484381B2114843
:100900000B4A128820F8121009480088401C084938
:100910000880074800883228E2DB10BD2C00002048
:1009200020000020300000200008002088600240E5
:100930001600002080010020A482424234000020E2
:10094000D6390008F80100203A3A00089E3A00081B
:100950009AC20C00704700BFFEE700BFFEE700BF71
:10096000FEE700BFFEE77047704770477047000022
:100970000CB50020019000907648006840F480306B
:100980007449086000BF7348006800F400300090AC
:100990000198401C0190009818B90198B0F5A04F3B
:1009A000F1D16C48006800F4003010B101200090D3
:1009B00001E0002000900098012846D165484030B1
:1009C000006840F080506349403108606248006828
:1009D00040F44040604908605E48083000685D4966
:1009E000083108600846006840F400400860084686
:1009F000006840F4A05008605848091F0860081FAC
:100A0000006840F08070091F086000BF514800680E
:100A100000F000700028F9D040F2057050490860DD
:100A20004C480830006820F003004A49083108604B
:100A30000846006840F00200086000BF45480830E2
:100A4000006800F00C000828F8D10CBD10B545482E
:100A5000006840F47000434908603E48006840F078
:100A600001003C49086000203A49083108603948D3
:100A700000683D490840374908603C48091D086046
:100A8000081F006820F48020091F086000203149F9
:100A90000C310860FFF76CFF4FF00060314980397E
:100AA000086010BD70B5002000220223002402213E
:100AB000284D08352D6805F00C0020B1042806D01B
:100AC000082834D107E02A4D2A4E356033E02A4DFC
:100AD000284E35602FE01F4D2D1D2D68C5F3805425
:100AE0001C4D2D1D2D6805F03F0154B1224DB5FB65
:100AF000F1F5184E361D3668C6F3881605FB06F26A
:100B000009E01B4DB5FBF1F5124E361D3668C6F3F4
:100B1000881605FB06F20F4D2D1D2D68C5F3014506
:100B20006D1C6B00B2FBF3F5124E356003E0104D07
:100B3000104E356000BF00BF064D08352D68C5F367
:100B400003150E4E705D0B4D2D68C540094E356086
:100B500070BD00000038024000700040085440079B
:100B6000003C024088ED00E0FFFFF6FE103000245C
:100B70000024F4006001002000127A0064010020CB
:100B80001CB50121202001F0A3FA4FF4064000908B
:100B900001208DF8040000208DF8060003208DF858
:100BA000050001208DF807006946044800F0C8FDE3
:100BB0004FF4C061014800F03FFE1CBD001402402C
:100BC0001CB50121112001F083FA182000900020AB
:100BD0008DF8040003208DF8050001208DF8070032
:100BE00069462C4800F0ACFD0120009002208DF8F1
:100BF00007006946284800F0A3FD1CBD10B5044657
:100C000014B10120254908702448007858B31021F8
:100C1000204800F0F7FD50B108211E4800F0F2FD19
:100C200028B101211C4800F0EDFD01281BD10A204C
:100C300000F0D6F90020194908701021154800F07D
:100C4000E1FD08B9012010BD0821124800F0DAFDCD
:100C500008B90220F7E701210F4800F0D3FD012871
:100C600015D10320EFE710210A4800F0CBFD012841
:100C70000DD10821074800F0C5FD012807D1012149
:100C8000054800F0BFFD10B901200449087000209C
:100C9000D9E700000010024000000240740100206B
:100CA0002DE9F04190B004460D4617461E46DDF88A
:100CB00058802648844204D90121880501F008FAA9
:100CC00003E00121480501F003FA204600F0DEFAB6
:100CD00000BF204600F003FC0028FAD101950297DE
:100CE000039640200490CDF81480002006904FF425
:100CF00080600790400008908000099040110A90A1
:100D000000020B9000200C9003200D9000200E900C
:100D10000F9001A9204600F05BFB10B0BDE8F08108
:100D200070B504460D460021204600F08BFB00BF45
:100D3000204600F0D4FB0028FAD12946204600F0D6
:100D4000A2FB0121204600F07DFB70BD0064024043
:100D500000B587B00121084601F0BAF90121480722
:100D600001F0FFF91020059003208DF818000220F3
:100D70008DF81B0005A9264800F0E2FC2420019014
:100D80000020029003900220049001A9002001F0AD
:100D9000FEFA0121002001F09FFB0121002001F05B
:100DA00013FB0021084601F05DFB07B000BD70B5E4
:100DB0002DED048B0446204602F0F7FC41EC180BA5
:100DC0009FED140B53EC102B51EC180B02F068FB49
:100DD00041EC180B9FED110B53EC102B51EC180B41
:100DE00002F0F6FC41EC190B9FED0E0B53EC102BAF
:100DF00002F056FB41EC180B51EC180B02F0A8FC6A
:100E000085B22946002001F02DFBBDEC048B70BD9E
:100E1000000002400000000000408F400000000081
:100E20000000B0406666666666660A407FB50546A5
:100E30000C460121022001F094F90295ADF804401E
:100E40000020ADF80600ADF80C0001A9314801F012
:100E500048FC012211462F4802F0E4F801212D48F8
:100E600001F0C8FC1D208DF8000001208DF8010064
:100E700003208DF8020001208DF80300684600F081
:100E80009AF97FBD3EB505460C460121084601F0A2
:100E900068F90195ADF800400020ADF80200ADF80A
:100EA00008002021480602F075F969464FF080409D
:100EB00001F017FC0121880701F09CFC3EBD70B5D4
:100EC0000121144802F0C5F801281DD1124800681C
:100ED00008B9012000E000200F49086000240FE05D
:100EE00000250AE00C48001F006808B9012000E056
:100EF00000200949091F08606D1C642DF2D3641C91
:100F000042F210708442EBD30121024802F0B2F8A1
:100F100070BD000000040040A882424210B50446A3
:100F20006FF0040000F094F9E11704EB5171C1F384
:100F3000C701394A11701046007800EB4001C1EB3F
:100F4000C0104FF6FF7101EAC0003449088010BD9F
:100F50000146314A12784A434FF0E0235A61002299
:100F60009A611A46126942F001021A6100BF4FF0FD
:100F7000E022106900F001021AB100F48032002A68
:100F8000F5D04FF0E022126922F001024FF0E02389
:100F90001A6100229A6170470146204A12884A432A
:100FA0004FF0E0235A6100229A611A46126942F01A
:100FB00001021A6100BF4FF0E022106900F0010247
:100FC0001AB100F48032002AF5D04FF0E022126905
:100FD00022F001024FF0E0231A6100229A6170476B
:100FE00070B504464FF4077094FBF0F0C6B24FF4AE
:100FF000077094FBF0F100FB114085B205E04FF45F
:101000000770FFF7C9FF701EC6B2002EF7D115B1E9
:101010002846FFF7C1FF70BD76010020780100204F
:10102000014600BF704700BF4C4A128802F04002E0
:10103000002AF9D0C2B2494B9A80704710B588B0E7
:1010400004460121084601F043F80121102001F077
:1010500099F807220921424800F0FDFB07220A21E6
:101060003F4800F0F8FB4FF4C060069002208DF876
:101070001C008DF81D0000208DF81E0001208DF849
:101080001F0006A9364800F05BFB02940020ADF873
:101090000C00ADF80E00ADF81000ADF814000C20F7
:1010A000ADF8120002A92D4800F075FC01212B4873
:1010B00000F0F9FC012240F22551284800F0A9FD7A
:1010C00025208DF8040003208DF805008DF806001A
:1010D00001208DF8070001A800F06DF808B010BDE0
:1010E00010B540F225511D4800F0CEFD10B31B484D
:1010F00000F008FDC4B21B48008800F40040C8B9E5
:101100001848008800F4804060B10A2C03D0002009
:101110001449088021E01348008840F40040114938
:1011200008801AE00D2C06D10E48008840F480405B
:101130000C49088011E00B480088C0F30D000A49F3
:101140000C5408480088401C06490880084600885E
:10115000B0F5967F01DB0020088010BD0010014033
:10116000000002408001002044060020094880471A
:1011700009480047FEE7FEE7FEE7FEE7FEE7FEE779
:10118000FEE7FEE7FEE7FEE704480549054A064B91
:10119000704700004D0A000889010008D0070020B0
:1011A000D00D0020D0090020D00900203249014391
:1011B000324A1160704770B5002100230F22C478B5
:1011C0001CB32E4C246804F4E064C4F5E064C4F35A
:1011D0000721C1F10404E3B20A4144789C40E1B222
:1011E0008478144021430C07210E254C0578615565
:1011F000047804F01F050124AC4005786D11AD00A2
:1012000005F1E025C5F8004109E0047804F01F0568
:101210000124AC401B4D0678761145F8264070BD80
:10122000194A0A400243154B1B1F1A60704739B117
:10123000124A121D12680243104B1B1D1A6006E071
:101240000E4A121D126882430C4B1B1D1A60704718
:10125000042808D14FF0E021096941F004014FF062
:10126000E022116107E04FF0E021096921F004015B
:101270004FF0E022116170470000FA050CED00E02C
:1012800000E400E080E100E080FFFF1F016821F042
:10129000010101600021016041608160C160016164
:1012A00021214161DB49884204D13D21D94A103ACC
:1012B00091608CE0D7491831884205D14FF47461B0
:1012C000D44A103A916082E0D2493031884205D147
:1012D0004FF47411CF4A103A916078E0CD4948310B
:1012E000884205D14FF07461CA4A103A91606EE0AD
:1012F000C8496031884204D1C749C64A103AD16012
:1013000065E0C4497831884204D1C449C14A103AE1
:10131000D1605CE0BF499031884204D1C049BD4AE8
:10132000103AD16053E0BB49A831884205D14FF053
:101330003D51B84A103AD16049E0BA49884204D1D7
:101340003D21B84A083A116041E0B6491831884257
:1013500005D14FF47461B34A083A116037E0B149DE
:101360003031884205D14FF47411AE4A083A116009
:101370002DE0AC494831884205D14FF07461A94A4B
:10138000083A116023E0A7496031884204D1A2499C
:10139000A44A121F11601AE0A2497831884204D190
:1013A0009E49A04A121F116011E09E499031884267
:1013B00004D19B499B4A121F116008E09949A8314A
:1013C000884204D14FF03D51964A121F1160704778
:1013D00010B500220268944B1A40CC680B68234376
:1013E0004C6923438C692343CC6923430C6A234310
:1013F0004C6A23438C6A23434C6B23438C6B2343FB
:101400001A430260426922F00702D1E90B342343F8
:101410001A4342610B6943604B6883608B68C36009
:1014200010BD0021016041608160C16001614161C6
:101430008161C161016241628162C1620163416394
:101440008163704721B1026842F00102026003E04B
:10145000026822F001020260704721B1026842F482
:101460000042026003E0026822F40042026070471A
:1014700021B1026842F02002026003E0026822F01B
:10148000200202607047416070470146486880B2A0
:10149000704722B1036843F40023036003E003684C
:1014A00023F4002303600161704721B1026842F414
:1014B0008022026003E0026822F48022026070470A
:1014C0000AB1016100E0C1607047014600200A686E
:1014D00002F400220AB1012000E00020704701461A
:1014E00000200A6802F001020AB1012000E0002099
:1014F0007047014600204A6902F03800704730B555
:1015000003460A4600200024464DAB4202D2414920
:10151000103901E04349103902F000550DB14C6813
:1015200000E00C68414D2C4004EA02050DB1012099
:1015300000E0002030BD02463A4B9A4202D23548C4
:10154000103801E03748103801F000531BB1374B19
:101550000B40C36002E0354B0B408360704710B511
:1015600001F080034BB122B1436943F08003436132
:1015700003E0436923F08003436180290BD02AB143
:10158000036801F01E042343036004E0036801F0D4
:101590001E04A343036010BD70B502460020002462
:1015A0000025204EB24202D21A4B103B01E01D4BE7
:1015B000103B1F4E0E4036B11E2606EAD124166897
:1015C00006EA040502E0566906F0800501F00056BF
:1015D0000EB15C6800E01C68144E344004EA010659
:1015E00016B10DB1012000E0002070BD02460D4B88
:1015F0009A4202D20748103801E00A48103801F038
:1016000000531BB1094B0B40C36002E0074B0B407A
:1016100083607047106002403D000020400F0020B2
:1016200000003D20106402403F801CF07D0F7D0FC4
:101630003C0F3C0F10B504469848844208D1012164
:10164000084600F0B0FD0021012000F0ACFD76E07E
:101650009348844208D10121022000F0A4FD00211A
:10166000022000F0A0FD6AE08E48844208D10121EA
:10167000042000F098FD0021042000F094FD5EE0BD
:101680008948844208D10121082000F08CFD002106
:10169000082000F088FD52E08448844208D10121EE
:1016A000102000F080FD0021102000F07CFD46E0BD
:1016B0007F48844208D10121202000F074FD0021E0
:1016C000202000F070FD3AE07A48844208D10121E0
:1016D000402000F068FD0021402000F064FD2EE075
:1016E0007548844208D10121802000F05CFD002172
:1016F000802000F058FD22E07048844208D101218A
:10170000801500F050FD0021A01500F04CFD16E002
:101710006B48844208D10121401500F044FD0021AE
:10172000601500F040FD0AE06648844207D10121BF
:10173000001500F038FD0021201500F034FD10BD2B
:10174000F0B50A4600210023002400BF3DE001253A
:1017500005FA01F3156805EA03049C4234D10568D3
:101760004F000326BE40B543056015794E00B540D5
:101770000668354305601579012D02D01579022DD3
:1017800016D185684F000326BE40B5438560557964
:101790004E00B540866835438560456801268E4019
:1017A000B5434560456896798E40B6B2354345608D
:1017B000C5684F000326BE40B543C560D5794E00CD
:1017C000B540C6683543C560491C1029BFD3F0BD7C
:1017D0004FF6FF7101600021017141718171C1718A
:1017E000704708B54FF480320092009A0A43009285
:1017F000009AC261C161009AC261C2690092C26965
:10180000009208BD0246002013690B400BB1012075
:1018100000E0002070470146086980B27047024628
:10182000002053690B400BB1012000E000207047FD
:101830000146486980B27047018370474183704711
:101840000AB1018300E041837047416170474269FA
:101850004A4042617047F0B5002300244D07ED0E69
:1018600002FA05F3CE1000F1200555F826504E0778
:10187000F70E0F26BE40B543CF1000F1200646F804
:101880002750CE1000F1200555F8265045EA0304F4
:10189000CE1000F1200545F82640F0BD00000240C2
:1018A0000004024000080240000C02400010024008
:1018B0000014024000180240001C024000200240B8
:1018C000002402400028024010B50446FA48844231
:1018D00008D10121102000F0AAFC0021102000F006
:1018E000A6FC57E0F548844209D10121480400F0E4
:1018F0008DFC00214FF4003000F088FC4AE0F048F5
:10190000844209D10121880400F080FC00214FF4B9
:10191000802000F07BFC3DE0EA48844209D10121AF
:10192000C80400F073FC00214FF4002000F06EFCAE
:1019300030E0E548844209D10121080500F066FC49
:1019400000214FF4801000F061FC23E0DF48844266
:1019500008D10121202000F06AFC0021202000F0A5
:1019600066FC17E0DA48844209D10121880700F0BB
:101970004DFC00214FF0804000F048FC0AE0D548C3
:10198000844207D10121400500F040FC00216005A0
:1019900000F03CFC10BD2DE9FF4705460E46002433
:1019A000A14600BFA046B08900B100BF2C8A24F434
:1019B0004054F08804432C82AC8941F20C6084438B
:1019C000B08831890843718908430443AC81AC8AEB
:1019D00024F44074B0890443AC82684600F0A7FA4E
:1019E000B548854202D0B948854202D1DDF80C9055
:1019F00001E0DDF80890A88900F4004040B109EB4F
:101A0000C90000EB091031684900B0FBF1F707E0AD
:101A100009EBC90000EB091031688900B0FBF1F750
:101A20006420B7FBF0F004012009642101FB107869
:101A3000A88900F4004040B1322000EBC800B0FBA0
:101A4000F1F000F00700044308E0322000EB08103A
:101A50006421B0FBF1F000F00F0004432C81BDE8DD
:101A6000FF874FF41651016000218180C180018100
:101A70000C21418100218181704710B50246002070
:101A8000108A20F470600B884C8823438C88234391
:101A9000CC8823431843108210BD0021018041806F
:101AA0008180C180704721B1828942F400528281D5
:101AB00004E082894DF6FF731A4082817047028BE1
:101AC00002F47F420283028B0A430283704721B1F2
:101AD000828942F40042828103E08289C2F30E02CD
:101AE0008281704721B1828A42F40062828204E0DE
:101AF000828A4FF2FF731A4082827047C1F3080254
:101B00008280704701468888C0F308007047028AC7
:101B10004FF6F0731A400282028A0A43028270472B
:101B200021B1828942F00202828104E082894FF66B
:101B3000FD731A408281704782894FF2FF731A4009
:101B4000828182890A4382817047028A4FF6DF735D
:101B50001A400282028A0A430282704721B1028A35
:101B600042F48042028204E0028A4BF6FF731A407C
:101B700002827047818941F001018181704721B162
:101B8000828A42F00802828204E0828A4FF6F7736A
:101B90001A4082827047028BD2B20283028B42EAE1
:101BA00001220283704721B1828A42F020028282A0
:101BB00004E0828A4FF6DF731A408282704721B1B7
:101BC000828A42F01002828204E0828A4FF6EF732A
:101BD0001A4082827047828A4FF6FB731A408282D3
:101BE000828A0A438282704721B1828A42F00202CD
:101BF000828204E0828A4FF6FD731A408282704727
:101C00001AB1838A0B43838202E0838A8B438382E7
:101C10007047F0B50346002400260025002040F65A
:101C20006A17B94200D100BF1846C1F3421401F04F
:101C30001F06012707FA06F5012C01D10C3004E03C
:101C4000022C01D1103000E014301AB107682F4384
:101C5000076002E00768AF430760F0BD024600205E
:101C6000B1F5007F00D100BF13880B400BB10120FC
:101C700000E00020704701F40072B2F5007F00D14F
:101C800000BFCA430280704770B50246002400239B
:101C90000025002040F66A16B14200D100BFC1F312
:101CA000421501F01F03012606FA03F3012D13D19B
:101CB0009689334017E000000010014000440040C6
:101CC00000480040004C004000500040001401401B
:101CD00000780040007C0040022D02D1168A33407B
:101CE00001E0968A33400C12012606FA04F41688A5
:101CF000344013B10CB1012000E0002070BD10B5DC
:101D00000022002340F66A14A14200D100BF0A124B
:101D100001249440A3B2DC43048010BDF94800685C
:101D200040F00100F74908600020F64908310860DA
:101D3000F4480068F4490840F2490860F348091D76
:101D40000860F348EF4984310860F0481038091DF5
:101D50000860EC48006820F48020EA490860002010
:101D6000E8490C310860E7498C3108607047002170
:101D7000E44A921C117011460870704710B5014674
:101D80000022002300204A11012A02D1DD4C2368E1
:101D900008E0022A03D1DB4C7034236802E0D94CFE
:101DA0007434236801F01F02012494401C400CB1DC
:101DB000012000E0002010BD38B500200090002474
:101DC000002500BF3120FFF7D9FF05460098401CD1
:101DD00000900098B0F5A04F01D0002DF2D0312036
:101DE000FFF7CCFF08B1012400E00024204638BDF5
:101DF00001460020C34A106820F0F80040EAC10004
:101E000010607047C349086070470021BD4A7032B6
:101E100011701170012802D004280AD104E00121B8
:101E2000B84A7032117005E00521B64A703211705F
:101E300000E000BF00BF7047B7490860704770B549
:101E4000049C41EA82150126C6EB530645EA064585
:101E5000054345EA0465AB4E361D356070BDAD499E
:101E600008667047820142EA0172A64B84331A6009
:101E70007047A8498866704710B5830143EA01633B
:101E800043EA02739F4C8834236010BDA149086760
:101E90007047A049C864704702460020994B083338
:101EA000186820F0EC6042EA01031843954B0833B0
:101EB0001860704702460020924B0833186820F0E3
:101EC000784042EA010318438E4B0833186070478C
:101ED000014600208B4A0832106820F003000843B6
:101EE0001060704787480830006800F00C007047A9
:101EF00001460020834A0832106820F0F0000843B1
:101F000010607047014600207E4A0832106820F4B5
:101F1000E05008431060704701460020794A0832BB
:101F2000106820F4604040EAC10010607047F0B5CE
:101F3000002100220024022500260223714F0837C9
:101F40003F6807F00C0121B1042905D0082937D1D9
:101F500005E0724F076036E0714F076033E0694F6C
:101F60003F1D3F68C7F38056664F3F1D3F6807F02F
:101F70003F036EB16A4FB7FBF3F7DFF888C10CF18E
:101F8000040CDCF800C0CCF3881C07FB0CF40CE05C
:101F9000624FB7FBF3F7DFF86CC10CF1040CDCF80F
:101FA00000C0CCF3881C07FB0CF4564F3F1D3F6864
:101FB000C7F301477F1C7D00B4FBF5F7076002E023
:101FC000564F076000BF00BF4E4F08373F6807F00D
:101FD000F0010909534F7A5C0768D7404760494FC1
:101FE00008373F6807F4E051890A4E4F7A5C47682A
:101FF000D7408760434F08373F6807F46041490B7B
:10200000484F7A5C4768D740C760F0BD002100F4B4
:102010004072B2F5407F0AD13A4A0832116821F481
:10202000F811414A02401143364A08321160354ADC
:1020300070321268C0F30B031A43324B70331A60CC
:102040007047354944390860704733494039086062
:10205000704736490860704701460020294A8C3293
:10206000106820F01F004A1E1043264A8C32106070
:10207000704701460020234A8C32106820F4F85043
:102080004A1E40EA02201F4A8C3210607047014607
:1020900000201C4A8C32106820F440100843106065
:1020A000704701460020174A8C32106820F4400027
:1020B00008431060704701460020124A8C321068B5
:1020C00020F4403008431060704719490860704799
:1020D00039B10C4A3032126802430A4B30331A606D
:1020E00006E0084A303212688243064B30331A60E9
:1020F0007047F9B1034A343212680243014B34335A
:102100001A601CE000380240FFFFF6EA103000249D
:102110000030002000004742800E47420024F400B7
:1021200000127A0082010020FFFCFF0F5C01474291
:10213000E01147428F4A126882438E4B1A60704703
:1021400039B18C4A121D126802438A4B1B1D1A605A
:1021500006E0884A121D12688243864B1B1D1A60D6
:10216000704739B1834A0C3212680243814B0C33F9
:102170001A6006E07F4A0C32126882437D4B0C33B2
:102180001A60704739B17B4A103212680243794BAA
:1021900010331A6006E0774A103212688243754B9A
:1021A00010331A60704739B1724A243A12680243F8
:1021B000704B243B1A6006E06E4A243A1268824350
:1021C0006C4B243B1A60704739B16A4A203A126856
:1021D0000243684B203B1A6006E0664A203A1268C8
:1021E0008243644B203B1A60704739B1614A1C3A04
:1021F000126802435F4B1C3B1A6006E05D4A1C3AC2
:10220000126882435B4B1C3B1A60704739B1594AD4
:10221000143A12680243574B143B1A6006E0554AC1
:10222000143A12688243534B143B1A60704739B119
:10223000504A103A126802434E4B103B1A6006E0B7
:102240004C4A103A126882434A4B103B1A6070475E
:1022500039B1484A1C3212680243464B1C331A609B
:1022600006E0444A1C3212688243424B1C331A6017
:10227000704739B13F4A2032126802433D4B203348
:102280001A6006E03B4A203212688243394B203301
:102290001A60704739B1374A243212680243354B0D
:1022A00024331A6006E0334A243212688243314BE9
:1022B00024331A60704739B12E4A2C321268024317
:1022C0002C4B2C331A6006E02A4A2C3212688243C7
:1022D000284B2C331A60704739B1264A30321268C5
:1022E0000243244B30331A6006E0224A303212682F
:1022F0008243204B30331A607047012808D11D49B2
:102300003C31096841F008011A4A3C32116007E08B
:1023100018493C31096821F00801164A3C32116025
:10232000704739B1134A273A12780243114B273BC1
:102330001A7006E00F4A273A127882430D4B273B6A
:102340001A7070470B484030006840F080700949AF
:1023500040310860704701460020064A283A12685A
:102360000A400AB1012000E00020704701492639E7
:10237000087070473438024010B501214807FFF754
:1023800045FF00214FF00050FFF740FF10BD30B572
:10239000002200237B4C226840F6FE748440A24356
:1023A000D1E900452C438D682C43CD6844EA0503F0
:1023B00003FA00F42243734C226030BD0021016017
:1023C00041608160C160704739B16E4A1268012373
:1023D00083401A436B4B1A6006E06A4A1268012375
:1023E00083409A43674B1A60704710B551B1654AF4
:1023F000121D126804090123A3401A43614B1B1DDF
:102400001A6009E05F4A121D126804090123A34003
:102410009A435C4B1B1D1A6010BD40B15949091D00
:10242000096841F00301574A121D116007E0554940
:10243000091D096821F00301524A121D11607047FD
:1024400010B53AB14F4B1B6801FA00F423434D4CD1
:10245000236006E04B4B1B6801FA00F4A343494C90
:10246000236010BD08B500220092464A009200F198
:102470000802009B1A440092009A116008BD08B53A
:10248000002200923F4A009200F11402009B1A447D
:102490000092009A116008BD30B50024002308287E
:1024A00002D142EA012401E042EA0144354B00F145
:1024B00020052B441C6030BD08B50146002000906B
:1024C000304800902C2000EB9100009A10440090BE
:1024D0000098006880B208BD41B12A4A12684FF4E2
:1024E000805383401A43274B1A6007E0254A12683D
:1024F0004FF4805383409A43224B1A60704710B5C3
:102500003AB1204B1B6801FA00F423431D4C2360B1
:1025100006E01C4B1B6801FA00F4A343194C23602E
:1025200010BD10B502460020164B34331B6801FA6B
:1025300002F423400BB1012000E0002010BD01FA9D
:1025400000F2104B34331A60704730B50246002059
:1025500000230C4C246801FA02F504EA0503094C37
:102560003434246801FA02F52C4014B10BB1012077
:1025700000E0002030BD01FA00F2024B34331A6053
:10258000704700000074004010B50446FE488442C5
:1025900008D101210846FFF74AFE00210120FFF77C
:1025A00046FE9DE0B4F1804F08D101210846FFF7B7
:1025B0002DFE00210120FFF729FE91E0F34884421F
:1025C00008D101210220FFF721FE00210220FFF7A0
:1025D0001DFE85E0EE48844208D101210420FFF76A
:1025E00015FE00210420FFF711FE79E0E94884423E
:1025F00008D101210820FFF709FE00210820FFF77C
:1026000005FE6DE0E448844208D101211020FFF767
:10261000FDFD00211020FFF7F9FD61E0DF48844255
:1026200008D101212020FFF7F1FD00212020FFF734
:10263000EDFD55E0DA48844208D101210220FFF780
:10264000F6FD00210220FFF7F2FD49E0D548844263
:1026500009D101210804FFF7EAFD00214FF4803081
:10266000FFF7E5FD3CE0D048844209D10121480450
:10267000FFF7DDFD00214FF40030FFF7D8FD2FE01C
:10268000CA48844209D101218804FFF7D0FD002106
:102690004FF48020FFF7CBFD22E0C548844208D1EB
:1026A00001214020FFF7B2FD00214020FFF7AEFDE1
:1026B00016E0C048844208D101218020FFF7A6FD22
:1026C00000218020FFF7A2FD0AE0BB48844207D129
:1026D00001218015FFF79AFD0021A015FFF796FD57
:1026E00010BD00220288A84B98420ED0AC4B9842F5
:1026F0000BD0B0F1804F08D0A44B984205D0A44B2A
:10270000984202D0A34B984204D14FF68F731A40DF
:102710004B881A43A04B984207D0A04B984204D054
:102720004FF6FF431A400B891A4302804B68C3627D
:102730000B880385944B984202D0994B984201D163
:102740008B7A03860123838270474FF0FF3141600B
:102750000021018001814180817270470185828260
:1027600070470A46002101884FF68F7319401143C4
:102770000180704741627047C16270470146486AF4
:1027800070470146088D704721B1028842F002026D
:10279000028004E002884FF6FD731A400280704701
:1027A00021B1028842F00402028004E002884FF660
:1027B000FB731A400280704721B1028842F0800208
:1027C000028004E002884FF67F731A40028070474F
:1027D00002884FF6F7731A40028002880A4302808B
:1027E000704702884FF6FF431A40028002880A436E
:1027F0000280704721B1028842F00102028004E0A9
:1028000002884FF6FE731A400280704770B50024AC
:1028100000220023058C4FF6FE7635400584028C9D
:102820008388048B4FF68F752C40B51E2C400D8885
:102830002C43751E2A408D892A434D882A43524DC8
:10284000A84202D0564DA84213D14FF6F7752A4040
:10285000CD892A434FF6FB752A408D882A434FF6CF
:10286000FF652B404FF6FF552B400D8A2B434D8AB9
:102870002B43838004838D684563028470BD70B5EB
:10288000002400220023058C4FF6EF7635400584A6
:10289000028C8388048B48F6FF752C404FF6FF4569
:1028A0002C400D884FF6FF7606EA05252C434FF69F
:1028B000DF752A408D8906EA05152A434D8806EA08
:1028C00005152A43304DA84202D0354DA8421DD1EE
:1028D0004FF67F752A40CD894FF6FF7606EA05153B
:1028E0002A434FF6BF752A408D8806EA05152A430C
:1028F0004FF6FF352B404FF2FF752B400D8A06EA4D
:1029000085052B434D8A06EA85052B438380048386
:102910008D688563028470BD70B500240022002399
:10292000058C4FF6FF6635400584028C8388848BC6
:102930004FF68F752C404FF6FC752C400D882C43BC
:102940004FF6FF552A408D894FF6FF7606EA05259A
:102950002A434D8806EA05252A430B4DA84202D09A
:102960000F4DA84238D14FF2FF752A40CD894FF65E
:10297000FF7606EA05252A434FF6FF352A408D8863
:1029800006EA05252A4319E0000001400004004042
:1029900000080040000C00400010004000140040FF
:1029A0000004014000400140004401400048014053
:1029B00000180040001C0040002000404EF6FF754B
:1029C0002B404DF6FF752B400D8A06EA05152B436B
:1029D0004D8A06EA05152B43838084838D68C56381
:1029E000028470BD70B5002200230024058C4EF6D1
:1029F000FF7635400584038C8488828B48F6FF750A
:102A00002A404FF6FF452A400D884FF6FF7606EA2A
:102A100005252A434DF6FF752B408D8906EA0535BD
:102A20002B434D8806EA05352B43FE4DA84202D0C4
:102A3000FD4DA84208D14BF6FF752C400D8A4FF68C
:102A4000FF7606EA85152C43848082838D680564B1
:102A5000038470BD0021018041808180816081817B
:102A6000C18101824182704770B503460020002475
:102A70001846183001258D40ACB21D8CA5431D842D
:102A800009B108290AD100EB610005684FF68F767D
:102A9000354005600568154305600FE00D1FC5F35F
:102AA0004E052844056848F6FF7635400560056800
:102AB0004FF6FF7606EA02263543056070BD416396
:102AC000704781637047C1637047016470470A466D
:102AD0000021018B4FF68F7319401143018370471A
:102AE0000A460021018B48F6FF7319404FF6FF7329
:102AF00003EA02231943018370470A460021818BB0
:102B00004FF68F7319401143818370470A460021A5
:102B1000818B48F6FF7319404FF6FF7303EA0223D7
:102B20001943818370470A460021018B4FF6F773E2
:102B300019401143018370470A460021018B4FF26F
:102B4000FF7319404FF6FF7303EA02231943018311
:102B500070470A460021818B4FF6F77319401143E5
:102B6000818370470A460021818B4FF2FF73194021
:102B70004FF6FF7303EA02231943818370470A4625
:102B80000021018B4FF6FB731940114301837047FD
:102B90000A460021018B4FF6FF3319404FF6FF73B1
:102BA00003EA02231943018370470A460021818BFF
:102BB0004FF6FB7319401143818370470A46002189
:102BC000818B4FF6FF3319404FF6FF7303EA022360
:102BD0001943818370470A460021018B4FF67F73AA
:102BE00019401143018370470A460021018BC1F34C
:102BF0000E014FF6FF7303EA022319430183704766
:102C00000A460021818B4FF67F731940114381835F
:102C100070470A460021818BC1F30E014FF6FF7306
:102C200003EA02231943818370470A460021018C7D
:102C30004FF6FD7319401143018470470A46002185
:102C4000018C4FF6F77319401143018470470A460F
:102C50000021018C4FF6DF7319404FF6FF7303EA32
:102C600002131943018470470A460021018C4FF674
:102C70007F7319404FF6FF7303EA0213194301846F
:102C800070470A460021018C4FF6FF5319404FF65A
:102C9000FF7303EA02231943018470470A460021A7
:102CA000018C4FF2FF7319404FF6FF7303EA0223C2
:102CB0001943018470470A460021018C4DF6FF73C9
:102CC00019404FF6FF7303EA02331943018470473A
:102CD00030B5002301248C40A3B2048C9C430484AF
:102CE000048C02FA01F5ADB22C43048430BD30B53A
:102CF000002304248C40A3B2048C9C430484048CE1
:102D000002FA01F5ADB22C43048430BD828B4FF240
:102D1000FF331A408283828B4FF6FF7303EA01234D
:102D20001A4382837047F0B50C46154600210022F5
:102D30000026078C4EF6FF7C07EA0C070784818B80
:102D4000028C4FF6FF7707EA043640F6FF4739401A
:102D50004FF6FF7707EA052739434FF6FF7707EA73
:102D60000337394345F6FF773A4046F480573A43F4
:102D700081830284F0BD828B4FF6F3731A40828305
:102D8000828B0A4382837047F0B50C4615460021BA
:102D900000220026078C4FF6FF6C07EA0C07078419
:102DA000818B028C4FF6FF7707EA04264FF60C77EB
:102DB00039404FF6FF7707EA03172F4339434FF2A5
:102DC000FF573A4046F480773A4381830284F0BD4E
:102DD000028B4FF2FF331A400283028B4FF6FF73D0
:102DE00003EA01231A4302837047F0B50C461546E7
:102DF000002100220026078C4FF6EF7C07EA0C0723
:102E00000784018B028C4FF6FF7707EA041640F621
:102E1000FF4739404FF6FF7707EA033739434FF64C
:102E2000FF7703E0000001400004014007EA0527A6
:102E300039434FF65F773A4046F010073A43018333
:102E40000284F0BD028B4FF6F3731A400283028BAB
:102E50000A4302837047F0B50C4615460021002254
:102E6000068C4FF6FE773E400684018B028C4FF6AF
:102E70000C7631407E1C06EA03162E4331434FF692
:102E8000F576324044F00106324301830284F0BDFE
:102E900070B505460C46208850B92389A288618800
:102EA0002846FFF7D8FFE1882846FFF7CBFF25E04B
:102EB000208804280AD12389A28861882846FFF740
:102EC00094FFE1882846FFF783FF17E02088082851
:102ED0000AD12389A28861882846FFF755FFE18837
:102EE0002846FFF748FF09E02389A2886188284621
:102EF000FFF719FFE1882846FFF708FF70BD0021A2
:102F000001804180012181800021C18001817047C1
:102F10002DE9F04105460C4600260127608808B9D6
:102F2000022600E00026A088012801D1022700E047
:102F300001272088A0B92389A28861882846FFF745
:102F40008AFFE1882846FFF77DFF23893A4631460C
:102F50002846FFF74AFFE1882846FFF739FF13E0CC
:102F60002389A28861882846FFF73FFFE188284629
:102F7000FFF72EFF23893A4631462846FFF76BFFBD
:102F8000E1882846FFF75EFFBDE8F0810146486B07
:102F900070470146886B70470146C86B7047014611
:102FA000086C70470A884B881A438B881A43CB8871
:102FB0001A430B891A434B891A438B891A43A0F889
:102FC000442070470021018041808180C1800181BF
:102FD00041818181704731B1B0F8442042F4004210
:102FE000A0F8442005E0B0F84420C2F30E02A0F897
:102FF0004420704721B1828842F00402828004E0BC
:1030000082884FF6FB731A408280704721B1828814
:1030100042F00102828004E082884FF6FE731A407B
:10302000828070471AB183890B43838102E08389D0
:103030008B43838170478182704702460020138A48
:103040000B400BB1012000E000207047CA43028210
:10305000704730B50246002000230024158A05EA97
:103060000103958905EA010413B10CB1012000E0C8
:10307000002030BDCA430282704741EA0203A0F833
:10308000483070471AB183890B43838102E08389FA
:103090008B438381704721B1828842F0080282808D
:1030A00004E082884FF6F7731A40828070470189E6
:1030B0004FF6F8721140018170470A4600210189DC
:1030C0004FF68F73194011430181704730B50446A4
:1030D0000D4629462046FFF7F0FF208940F0070003
:1030E000208130BD2DE9F04104460D4616461F46AD
:1030F000602D06D13B46012231462046FFF775FE82
:1031000005E03B46012231462046FFF7A4FE294652
:103110002046FFF7D2FF208940F007002081BDE85C
:10312000F08130B50C4600210189C9B24FF6FF7518
:1031300005EA0325154325432943018130BD2DE9C7
:10314000F04105460E4617469846002443463A4647
:1031500031462846FFF7E5FF2C894FF6F87004400A
:1031600044F007044FF68F70044044F070042C8143
:10317000BDE8F081F0B504460D4616461F463B46B5
:10318000324629462046FFF7CCFF208940F4804094
:103190002081F0BD82884FF68F731A40828082882A
:1031A0000A438280704702894FF6F8731A40028101
:1031B00002890A430281704702894FF67F731A40E1
:1031C000028102890A4302817047F0B50C46154618
:1031D0001E460021002200230189028B038C4FF63A
:1031E000F877394021434FF6FC473A4040F2011747
:1031F0003A434FF6DD773B404FF6FF7707EA061775
:103200002F433B43018102830384F0BD21B18288B7
:1032100042F08002828004E082884FF67F731A4079
:1032200082807047A0F85010704770470FB404496F
:1032300010B503AA029800F0D3F810BC5DF814FB97
:103240007C0100202DE9F0410E460446002020625A
:103250002046E168884730B3252805D0D4E901210C
:103260009047206A401CF2E7E16820460027884723
:10327000050018D0A5F14100192802D820354FF4D7
:1032800000673246294620462760FCF7D7FF40B149
:10329000012804D0F61D26F007060836D8E7361DAB
:1032A000D6E72846DAE7206ABDE8F0812DE9F0414B
:1032B0000646002410687529314616A510D0AFF3D4
:1032C0000080002802DA404213A507E031688A072F
:1032D00001D512A502E0490704D511A5012401E09A
:1032E000AFF3008000210A2206F1240709E0B0FBB9
:1032F000F2FCB0FBF2F302FB1C00303078541846AD
:10330000491C0028F3D123462A463046BDE8F04147
:1033100000F00CB8000000002D0000002B000000A1
:103320002000000070477047704770472DE9F04754
:103330000D4699469246044600F124080168880625
:1033400004D5E06921F01001216000E00120A842CD
:1033500001DD471B00E00027A1697A1902EB090093
:10336000081AA0612078C00602D42046AFF300807E
:10337000002608E0D4E901211AF806009047206AE7
:10338000401C761C20624E45F4DB2078C0060AD52E
:103390002046AFF3008006E0D4E9012130209047B9
:1033A000206A401C2062381EA7F10107F4DC07E008
:1033B000D4E9012118F805009047206A401C2062DA
:1033C000281EA5F10105F3DC2046AFF3008020782C
:1033D000000602D50220BDE8F0870120FBE70000CF
:1033E000074B70B50D467B4400F011F804462846A3
:1033F00000F020F810B14FF0FF3070BD204670BDD6
:103400003DDCFFFF01694A1C02610878704700B586
:103410008FB0CDE901310021059105497944CDE90D
:10342000031011466846FFF70DFF0FB000BD000006
:10343000E5FFFFFF007B00F080007047754600F05D
:103440002BF8AE4605006946534620F00700854636
:1034500018B020B5FDF798FEBDE820404FF00006FB
:103460004FF000074FF000084FF0000B21F007016C
:10347000AC46ACE8C009ACE8C009ACE8C009ACE8AF
:10348000C0098D46704710B50446AFF30080204652
:10349000BDE81040FCF7E6BE00487047700700200A
:1034A0002DE9C04130B4DFF8A0C23CEA111418BFC6
:1034B0003CEA131400F0EC8081EA03051CEA1114C5
:1034C00044EAD57418BF1CEA131500F0C780A4EBBA
:1034D00005044FF0004545EAC12145EAC32341EA0E
:1034E000505143EA525304F17F74994204F5003479
:1034F0004FEAC0204FEAC22208BF904200F09C80F1
:103500004FEA13650FF24016765D4FEA134506FB4E
:1035100005F7C7F1807706FB07F74FEAD737A7FB18
:1035200003687642C8F58038A7FB06CE38BFA8F1FD
:10353000010807FB08E64FF0000EA6FB028CE6FB35
:1035400003CEDCF1000CCEF1004E38BFAEF1010E1F
:10355000A6FB0C584FF000074FF00005E6FB0E8766
:10356000A1FB08C6A0FB07CE16EB0E0645F1000531
:10357000E1FB076515F1E04E7EBFA4F580345FEAFC
:1035800046066D4116F1800745F100054FEA172701
:103590004FEA066647EA0567A6F1DE46B6F1805FA8
:1035A0004FEA15251FD9384624F0010C05EBC471EC
:1035B000BCF1FE6F01EB0C1102D8F0BCBDE800813C
:1035C00024425CBF01F5801E9EEAC47F02D4F0BC99
:1035D000BDE80081244238D4F0BCA1F1C041BDE86F
:1035E000004100F0EDB94FEAD22242EA43524FEADD
:1035F000D323A7FB02864FEAD02040EA415007FBC5
:1036000003661EEA0E0F4FEAD12105FB026658BF82
:10361000A6EB0056B6EB00564FEA520E4EEAC37EBA
:1036200018EB0E0E56EB530EBDD518EB02085E419B
:103630007F1C55F10005B6E74FF480154FF00007E9
:103640004FF000064FF00008ADE7F0BC4FF000006F
:1036500001F1C04101F00041BDE8008111EA0C1FF9
:103660000CEA131500D00CE013EA0C1F00F02580C3
:103670004FF00000F0BC81EA030101F00041BDE819
:103680000081F0BCBDE8004181EA030100F098B977
:10369000F0BCBDE8004170B500F044F9097EFC3E85
:1036A00000F007B881EA03014FF0000001F000418B
:1036B000704781EA030100F083B9F0BCBDE8004126
:1036C0004FF0000021497047FFFDFBF9F7F5F4F2D8
:1036D000F0EEEDEBE9E8E6E4E3E1E0DEDDDBDAD8AD
:1036E000D7D5D4D3D1D0CFCDCCCBCAC8C7C6C5C40B
:1036F000C2C1C0BFBEBDBCBBBAB9B8B7B6B5B4B322
:10370000B2B1B0AFAEADACABAAA9A8A8A7A6A5A40C
:10371000A3A3A2A1A09F9F9E9D9C9C9B9A999998D0
:103720009797969595949393929191908F8F8E8E73
:103730008D8C8C8B8B8A8989888887878685858400
:1037400084838382828181800000FF070000F87FEC
:103750004FEA1153A3F58063D3F11E03A8BFD3F141
:10376000200C08DB4FF0004242EAC12252EA5052DC
:1037700032FA03F0704709420BD4102BC4BF00206B
:10378000704703F5787CBCF1FF3F05D04FF0FF3068
:1037900070474FF00000704770B500F0C3F800BFED
:1037A0004992248000207047F0E7B0FA80F310FAC5
:1037B00003F10AD0C3F11D0303F580634FEA4150C2
:1037C0004FEA035202EBD12170474FF000007047DF
:1037D000DFF848C170B51CEA111E1EBF1CEA1315A4
:1037E0009EEA0C0F95EA0C0F00F06F8081EA03044B
:1037F00023EA4C134EEAD47E21EA4C1141F48011A5
:1038000043F48013AE44A1FB024CA0FB0365AEF170
:103810007F7E361955EB0C05A1FB034C4CF10003E0
:10382000A0FB021C16EB0C06654153F10003094294
:1038300018BF46F0010613F4007F0BD14FEA0331A5
:103840004FEA0530340341EA155140EA16506FF053
:1038500003020AE04FEAC3214FEAC520F40241EA1D
:10386000555140EA56506FF0020202EB2E4201EB36
:10387000025585EACE710AD05FEA440C18BF24F0E5
:10388000004450F1000041F1000120EAD47040F200
:10389000FE7C624500D270BDA84214BF4FF0804448
:1038A0004FF04044002E08BF0024BEF1806FA8BF37
:1038B000A1F1C041BDE8704080F282804FF000006D
:1038C00001F1C04101F0004170479EEA0C0F0CEA83
:1038D000131518BF95EA0C0F06D04FF0000081EACF
:1038E000030E0EF0004170BD00F01CF88900013E8F
:1038F00000F007B800F009B84FEA430C5FEA5C5CDF
:1039000008D081EA030100F05BB84FEA410C5FEA9E
:103910005C5CF6D14FF00000014970470000FF07E2
:103920000000F87F0EF1020E2EF0030E5EF8046B1D
:10393000364205D4012A43EB030515F5001F12D8C2
:10394000012841EB010C1CF5001F0CD80ED14FEAE9
:10395000D17C15F5001F0CEB4C0C0CF1020C08BFD0
:103960004CEBD37C04E04FF0080C01E04FEAD37C31
:103970000CEB4C0526FA05F606F00706B6F1040C2A
:1039800006D20EEB860CBDE870404CF0010C60478F
:10399000DFE80CF0090B02024FF000414FF000008D
:1039A000A1F5002170BD19461046012851EB010414
:1039B00018BFD4F5001484BF002001F0004170BD91
:1039C0000808A0F500114FEA310170474FF0407030
:1039D000E1EE100A704700080009FD09F10ADA0B50
:1039E000B30C790D2A0EC10E3D0F9B0FDB0FFB0FA1
:1039F000FB0FDB0F9B0F3D0FC10E2A0E790DB30C91
:103A0000DA0BF10AFD0900090008FF0602060E059F
:103A100025044C038602D5013E01C2006400240047
:103A20000400040024006400C2003E01D5018602A7
:103A30004C0325040E050206FF060400A4004801FD
:103A4000EC0190023403D8037C042005C405680609
:103A50000C07B0075408F8089C09400AE40A880BD0
:103A60002C0CD00C740D180EBC0E600FFB0F5C0FED
:103A7000B80E140E700DCC0C280C840BE00A3C0A16
:103A80009809F4085008AC0708076406C0051C052F
:103A90007804D40330038C02E8014401A000FB0F3A
:103AA000FB0FFB0FFB0FFB0FFB0FFB0FFB0FFB0FC6
:103AB000FB0FFB0FFB0FFB0FFB0FFB0FFB0FFB0FB6
:103AC000FB0FFB0FFB0FFB0FFB0FFB0FFB0FFB0FA6
:103AD00000000000000000000000000000000000E6
:103AE00000000000000000000000000000000000D6
:103AF00000000000000000000000000000000000C6
:103B00000000FB0F00000000283B00080000002020
:103B100094010000C4010008603B000894010020EB
:103B20003C0C000020020008100C31206368616E1C
:103B30007368656E67A009322072616E646F6D02F2
:103B400011010A13041601FF011C847A030A000AFA
:103B500011010203040607080901291A691E210040
:040000050800018965
:00000001FF
